:0200000280007C
:100000000080082045530800FD340800FD34080036
:10001000FD340800FD340800FD3408000000000035
:10002000000000000000000000000000FF34080095
:10003000FD34080000000000033508000735080003
:10004000FD340800FD340800FD340800FD340800CC
:10005000FD340800FD340800FD340800FD340800BC
:1000600005470800FD340800000000001D340800AA
:10007000553408008D340800C53408000000000025
:10008000000000001947080025470800FD3408005B
:1000900031470800FD3408008158080075580800F1
:1000A000FD34080000000000FD340800FD340800A5
:1000B000FD340800FD340800FD340800FD3408005C
:1000C000FD340800FD340800FD340800FD3408004C
:1000D000FD340800FD340800FD340800FD3408003C
:1000E000154F0800FD340800FD340800FD340800F9
:1000F000FD34080010B5054C237833B9044B13B117
:100100000448AFF300800123237010BD14010720C1
:10011000000000001C91080008B5034B1BB1034907
:100120000348AFF3008008BD00000000180107205D
:100130001C91080008B501F01DFA00F011FC01F057
:1001400069FA00F029F800F083FF00F06FFA00F080
:1001500023FCBDE8084001F039B808B501F033FAD6
:1001600000F006FC01F08AFA00F026F800F078FFB3
:1001700000F076FA00F026FCBDE8084001F032B845
:100180000846114603F012BA08B5007D03F0C2FA22
:10019000003818BF012008BD10B5064C02220C2102
:1001A000204602F0DBFE3221204602F06FFE0023E3
:1001B000637510BD3001072038B5134D134C284628
:1001C00002F076FE284602F0B2FE6B7D834208D133
:1001D000284602F0A5FEB0F5966F02D9237833B118
:1001E00038BD094802F0A7FE30B92070F8E70122B7
:1001F0002270074A1370F3E72378002BF0D1012215
:10020000034B1A70ECE700BF3001072048010720BC
:10021000300007200222024B18781A70704700BF86
:100220003000072010B5044C204602F08BFE034B33
:1002300023600123637510BD30010720507A080048
:1002400038B5054CA4F53475903C204603F01CFDF0
:10025000AC42F9D138BD00BF20040720014B18780B
:10026000704700BF4901072004289CBF014B18704C
:10027000704700BF490107209020034B1A78034BB9
:1002800000FB0230704700BF4901072050010720E2
:100290002DE9F84F0FF2A029D9E90089A8A7D7E9DD
:1002A0000067AF4CAF49204603F033FDA6A1D1E96A
:1002B0000001732300222361AB4B4FF0000AC4E915
:1002C0000623A3A3D3E90023C4E90A239123002230
:1002D0002363A64B5A25C4E90E23AF230022C4E9A9
:1002E00012894FF0640C4FF000084FF03C09DFF822
:1002F00080B223659F4BC4E910019F4904F190002F
:10030000C4E91A23C4E92223C4F870C0C4E9086709
:10031000C4E916ABC4E91867C4E91EABC4E9206799
:10032000257584F8345084F8549084F8748003F070
:10033000F0FC87A2D2E900127823C4F8A0309623FB
:10034000C4F8C030B423C4E92E1283A1D1E900015E
:100350004FF0640CC4E932017BA1D1E90001C4E98A
:10036000340175A2D2E90012C4E936120022C4F8A1
:10037000E030804B814904F59070C4E93E23C4E924
:100380004623C4F800C1C4E92AABC4E92C67C4E918
:100390003AABC4E93C67C4E942ABC4E9446784F8BA
:1003A000A45084F8C45084F8E49084F8048103F0E5
:1003B000B0FC7D22C4F8302165A2D2E90012C4E964
:1003C000521265A1D1E900019B22C4E956015EA148
:1003D000D1E90001C4F85021C4E9580156A2D2E97C
:1003E0000012C4E95A12B9224FF0640CC4F870210B
:1003F0000022604B624904F5D870C4E96223C4E965
:100400006A23C4F890C1C4E94EABC4E95067C4E99B
:100410005EABC4E96067C4E966ABC4E9686784F8A9
:10042000345184F8545184F8749184F8948103F021
:1004300070FC8222C4F8C02145A2D2E90012C4E9AE
:10044000761245A1D1E90001A022C4E97A013EA1BA
:10045000D1E90001C4F8E021C4E97C0136A2D2E967
:100460000012C4E97E12BE224FF0640CC4F80022D0
:100470000022404B434904F51070C4E98623C4E9C7
:100480008E23C4F820C2C4E972ABC4E97467C4E91E
:1004900082ABC4E98467C4E98AABC4E98C6784F899
:1004A000C45184F8E45184F8049284F8248203F05F
:1004B00030FC27A2D2E900129623C4F85032B423AC
:1004C000C4F87032D223C4E99A1223A1D1E9000101
:1004D0004FF0640CC4E99E011BA1D1E90001C4E9FD
:1004E000A00115A2D2E90012C4E9A2120022C4F8A8
:1004F0009032204B4046C4E9AA23C4E9B223C4E9A0
:1005000096ABC4E99867C4E9A6ABC4E9A867C4E997
:10051000AEABC4E9B06784F8545284F8745284F8DE
:100520009492C4F8B0C284F8B482174A1749BDE85F
:10053000F84F05F063BB00BF000000000030A14091
:100540009A9999999999B93F9A9999999999A93F9D
:1005500000000000007097400000000000C0524002
:1005600050010720587A0800008056400040504053
:100570000000594000408F405C7A0800607A080013
:10058000647A0800687A08002C00072041020800FD
:1005900010B5174C1749184803F024F923781BB3FA
:1005A0001649154803F01EF91549134803F01AF9C6
:1005B0001449114803F016F913490F4803F012F9D2
:1005C00023789BB111490C4803F00CF910490A48F3
:1005D00003F008F90F49084803F004F9BDE810409A
:1005E0000449054803F0FEB80B49DAE70B49F2E786
:1005F000200407208E820800F80907206C7A080082
:100600007C7A0800837A0800917A08009C7A0800B6
:10061000A87A0800B37A0800727A0800BE7A080047
:10062000014B1878704700BF2004072010B502F076
:10063000ACFF084C084B4FF4E1311860204603F042
:10064000D1FA2046054903F0CDF8BDE81040FFF788
:100650009FBF00BFF809072024040720CA7A0800BA
:1006600073B502F092FF9A4A1368C01AB0F57A7F08
:100670003BD303F57A73136000F048FF0128954BD4
:1006800050D11A782AB10022934994481A7003F085
:100690009FF800F041FF0A220146904803F0C2F89B
:1006A0008F498E4803F083F8022400F02DFD00945A
:1006B00002460B46894803F073F98949874803F0DD
:1006C00076F800F027FD009402460B46834803F0BD
:1006D00067F98349814803F06AF800F021FD00942E
:1006E00002460B467D4803F060F97C4803F0A8F908
:1006F000B0B17A4803F0BBF9C0B20A28794D02D0F4
:100700000D2840F0DB800022774E2B683046774979
:10071000F25405F0E3FE40B9FFF73AFF00232B60E7
:1007200002B070BD01221A70DFE73046704905F053
:10073000D5FE0446B8B900F0E3FE042807D1012233
:100740006C4B6D4965481A7003F04CF8E4E700F013
:10075000D7FE022805BF674B684969491C705F488E
:1007600003F040F8DAE73046664905F0B7FE044684
:10077000A0B900F0C5FE042808D1FFF76FFD0328DB
:1007800096BF01302046C0B2FFF76EFD5E49534868
:1007900003F011F8FFF770FD0168E0E700F0B0FE2C
:1007A00002280CD03046594905F098FE38B900F0BF
:1007B000A7FE042819D100F0BBFE5549CFE75549E3
:1007C000494805F08BFE90B100F09AFE022816D041
:1007D00000F096FE02281CD14F49434805F07EFEEA
:1007E000B8B900F002FF4D49B9E74D49B7E700F04D
:1007F0008DFE012892D100F0A7FE4A49AFE74A4991
:10080000394805F06BFE0028E2D100F0EAFE4749C6
:10081000A5E700F075FE022808D14549324805F0E9
:100820005DFE18B900F0E5FE424998E700F068FE69
:10083000022808D140492C4805F050FE18B900F0B4
:10084000DCFE3E498BE700F05BFE022808D13C4904
:10085000254805F043FE18B900F0D3FE39497EE77C
:1008600000F04EFE022808D137491F4805F036FE39
:1008700018B900F0CAFE354971E735491A4805F044
:100880002DFE08B133496AE73349144802F093FF5B
:10089000022400F019FF009402460B460F4803F0B3
:1008A0007FF82E490D4802F086FF00F013FF0094F8
:1008B00002460B46094803F078F82FE72B68312BE6
:1008C0003FF62CAF5A1C2A60074AD05428E700BFD5
:1008D0002404072031000720DA7A0800F8090720ED
:1008E000FB7A08005C04072028040720FD7A080032
:1008F0007D7A080020040720027B0800187B08008E
:100900002F7B0800847A0800517B08008B7B08004D
:100910005E7B0800C57A0800B07B0800AD7B08004C
:10092000707B0800917B0800A67B0800A37B080071
:10093000B87B0800BE7B0800CD7B0800D47B080094
:10094000E47B0800EA7B0800F97B0800007C0800D3
:10095000927A08001D7C0800107C0800157C0800B5
:1009600008B502F012FE014B186008BD60040720B4
:1009700008B502F00AFE074A1368C01AB0F5FA7FFC
:1009800006D903F5FA731360BDE8084000F01DBEF8
:1009900008BD00BF6004072008B500F0A5F800F00E
:1009A000B7F800F0BBF800F0ADF840F6C41002F064
:1009B000EEFD00F0ADF802F0E8FD014B186008BD57
:1009C0006804072070B500F0A1FD0128404D5AD100
:1009D00000F0A2FD3F4B04461A6882421FD0186007
:1009E00000F09AFDB0F57A7F06D2204600F02AFA90
:1009F00000F098FD00F046FA37484443B4F1553F03
:100A000003D800F061FE00F05FFA00F05DFE00F038
:100A100055F900F079FB00F091F901232B7000F0FB
:100A20006FFD2E4B04461A782D4E82421AD0187054
:100A300000F0B8F8012C36D100F06AF8FFF71CFC82
:100A400000F09EFA00F05CFD00F0ACF800F03CFE17
:100A500000F034F90020002100F0C2F900F052F853
:100A600001232B70FFF7FAFB337883422CD03070D0
:100A70002CBBFFF701FC00F0B5F800232B70BDE89C
:100A8000704000F03FB802F080FD164A1368C01AAB
:100A9000B0F57A7FC3D303F57A73136000F014FEC8
:100AA00000F00CF9B9E7E31FDBB2022B02D800F02B
:100AB00031FAD5E7002CD3D1FF233370D0E7FFF70D
:100AC000DBFB00F05DFAD8E72B78002BD5D170BDA9
:100AD0006404072034000720ABAAAAAA320007202A
:100AE0006C04072068040720012307B53C2202217B
:100AF0000093034801F0DAFE03B05DF804FB00BF89
:100B000070040720014802F025B900BF70040720D7
:100B1000014801F0BDBE00BF7004072010B50B4CAA
:100B20000121204601F0F9FB4FF001131E2220465F
:100B30000749C4E9042302F04BFE064B204623611B
:100B40000549BDE8104002F043BE00BF7004072015
:100B5000307C08001B0009003C7C08001FB50B4BD3
:100B60000B4A0C4CCDE901324FF0FF334022009389
:100B700080212046084B01F07FFD2046074A0849A6
:100B800004B0BDE8104005F039B800BF801A060077
:100B9000A0860100700407207C0F07202C0007208E
:100BA000D126080037B5082300220C4CCDE90032CD
:100BB000054636232046192101F0B9F820460121C7
:100BC00001F0ABFB192320462361054B53F8251098
:100BD00003B0BDE8304002F0EEBD00BF7004072056
:100BE0003C00072073B5082300262C4C05463246EE
:100BF00031462046CDE90036182301F098F82E231F
:100C000012223146204600930196802301F08FF88E
:100C10002046012101F081FB26612968204602F06F
:100C2000C6FD20461E4902F0C2FD1E4B20461E494D
:100C3000236102F0BCFD4FF4D01320461B49236111
:100C400002F0B5FD0A222969204602F0EBFD4FF4BF
:100C5000081320461649236102F0A9FD0A22296BD8
:100C6000204602F0DFFD4FF428132046114923618E
:100C700002F09DFD0A22296D204602F0D3FD4FF4BB
:100C8000481320460C49236102F091FD0A222046B8
:100C9000296F02B0BDE8704002F0C4BD70040720A7
:100CA000587C08000A001200497C08004E7C0800AD
:100CB000517C0800547C0800577C080073B51B4E1B
:100CC00004460D463046012101F027FB002208238F
:100CD0005021CDE900323046302301F028F80022BF
:100CE00020462946124B06F01BFD98B15A2333616A
:100CF0000223224600930D482B4602F051FEF721B5
:100D00000A4802F05CFD0B49084802B0BDE870409B
:100D100002F04DBD002220462946074B06F000FD9B
:100D200008B15623E3E75023E1E700BF7004072032
:100D3000000024405A7C080000005940D3B51E4CE6
:100D400006460F462046012101F0E7FA082300225B
:100D50004421CDE90032204609223C2300F0E7FF80
:100D6000164B17492046236102F021FD0022304630
:100D70003946144B06F0D4FC98B1134B236102237F
:100D8000324600930C483B4602F00AFEF7210A481F
:100D900002F015FD0D49084802B0BDE8D04002F050
:100DA00006BD002230463946094B06F0B9FC08B1B1
:100DB000084BE3E7084BE1E7700407204400090013
:100DC000517C0800000024405A0009005A7C0800A9
:100DD00000005940560009005000090000000000C2
:100DE00037B52D23002204460D46CDE900321321EC
:100DF0006C231222104800F09AFF00222046294658
:100E00000E4B06F08DFC20B113220D4B1A8003B05F
:100E100030BD204606A3D3E90023294606F09EFCF8
:100E20000028F4D07F22064BF0E700BFAFF300802C
:100E30000000000000C05F40700407200000334045
:100E40003800072037B5082300210C4CCDE90031CC
:100E50000546092220461E2300F069FF4FF41023A7
:100E600020460749236102F0A2FC0A2229462046B7
:100E700003B0BDE8304002F0D5BC00BF70040720CD
:100E8000547C080037B50823002205460B4CCDE9F9
:100E90000032204609221E23212100F048FF084B82
:100EA00020460849236102F082FC0A222946204696
:100EB00003B0BDE8304002F0B5BC00BF70040720AD
:100EC000210009005C7C080013B5104CB4F9003017
:100ED0007E2B14DC06F062FC1323E6220093002133
:100EE0003F2302F0C7FEB4F9001002B24B1C23806E
:100EF0000123074802B0BDE8104001F04CBB0020C0
:100F0000002102B0BDE81040FFF76ABF380007209B
:100F10007004072070B51224074E084D01232246A5
:100F200028460234B6F9001001F035FBA3B2402B7D
:100F300024B2F3D170BD00BF380007207004072031
:100F400007B501233F221221CDE9002303487F2367
:100F500000F066FF03B05DF804FB00BF70040720DB
:100F600007B53F230122CDE90032122303481A4678
:100F7000194600F055FF03B05DF804FB700407202C
:100F8000F7B5082300252D4C06462A46294620465B
:100F9000CDE90035182300F0CAFE2E23122229467F
:100FA000204600930195802300F0C1FE20460121D8
:100FB00001F0B3F925613168204602F0F8FB2046C4
:100FC0001F4902F0F4FB306D0A3006F0BDF84FF413
:100FD000901306460246236120460B4600950F46B5
:100FE00002F0DEFC4FF41013002223613046394634
:100FF000144B05F06BFF0022134B06F01FF9002283
:10100000104B05F065FF009502460B46204602F0A6
:10101000C7FC4FF458130D492046236102F0C7FB6B
:101020000022084B2046009502F0BAFCFFF788FF2B
:1010300003B0BDE8F040FFF793BF00BF7004072086
:10104000587C0800000049400000E03F4490080040
:1010500008B502F09AFA014B186008BDDC040720BD
:101060002DE9F84300F052FA012837D11E4801F06B
:1010700081FF20B100F028FB1C4BC3E9000102F006
:1010800084FA1B4E3768C01B06F05EF8194B044605
:10109000D3E9008942464B460D4606F055FB48B160
:1010A000384606F051F842464B4605F011FF06F06F
:1010B0009DFB3060104B2046D3E90023294606F003
:1010C0002FFB28B100F095FABDE8F84300F099BA7B
:1010D00000F093FABDE8F84300F097BAFFF7A0FAE2
:1010E0000028F5D0BDE8F883E00407205805072064
:1010F000DC0407206805072060050720014BC3E9D1
:101100000001704770050720014BD3E900017047CB
:1011100070050720014BD3E90001704758050720EF
:10112000014BD3E9000170476005072013B5064C59
:10113000CDE90023C4E9002302460B46034802F030
:1011400061F802B010BD00BF68050720E004072069
:101150000146014802F030B8E004072030B585B000
:10116000CDE90023DDE9084502460B46CDE90245FD
:10117000024802F011F805B030BD00BFE0040720BE
:10118000014600B10121014802F0AAB8E00407209D
:10119000002300B589B00022069300230749CDE95A
:1011A0000423CDE90223CDE900230548054B064A77
:1011B00002F0FEF809B05DF804FB00BF58050720F7
:1011C000E0040720700507206005072008B502F03D
:1011D000DCF9024B1860024B186008BD8C05072033
:1011E0007C0507202DE9F743FFF71AFAA84D0746BB
:1011F000A84C28B9FFF70EF800283DD001284ED0A2
:101200002B78012B12D102F0C0F9A34A1368C01A3F
:10121000B0F57A7F0AD303F57A7313609F4A136897
:10122000013313609E4A13680133136002F0ADF975
:101230002368C01AB0F57A7F60D303F57A73236010
:1012400000F042FA06460F46FFF716F8954C814625
:10125000237800F110080B2B00F24D81DFE813F02A
:101260004E00370046014B0145005D008A00B30087
:10127000DC0006012C0138018A4B1A78042A01D1BE
:10128000187008E02A78012A09BF032201221A7087
:10129000287018BF1A7002F078F92060B0E7814B0F
:1012A0001E784EB9FEF7DAFF03289CBF0130C6B2A4
:1012B0003046FEF7D9FFEEE72A78012A03D1032250
:1012C0002F701A70E7E7042E08BF774BD8E7002687
:1012D000724B30461E60724B1E60FFF751FF734B1E
:1012E0002E701E7004232370EDE000223046394634
:1012F0006F4B06F029FA20B10B23237003B0BDE831
:10130000F083FFF78DF908B10223F6E7664B1A78F0
:10131000002AF3D018700523EFE700220021654B67
:101320000020FFF703FF4FF47A70FFF711FF012051
:10133000FFF726FF00235A4A5C4E13603370D9F83A
:10134000100005F001FFFFF7D9FE337808EB4318D2
:10135000D8E90623CDE90023D8E90423D8E902011E
:10136000FFF7FCFE01232B7002F00FF94A4B1860C7
:101370000623C2E74D4D2B785B0158F8030005F0BA
:10138000E3FE02460B463046394606F0DDF90028FA
:10139000B4D00022424BD9F830001A6001232B70E0
:1013A00005F0D2FEFFF7AAFE2B7808EB4318D8E928
:1013B0000623CDE90023D8E90423D8E90201FFF789
:1013C000CDFE072399E7394D2B785B0158F80300D0
:1013D00005F0BAFE02460B463046394606F0B4F92F
:1013E00000288BD000222E4BD9F850001A6002231F
:1013F0002B7005F0A9FEFFF781FE2B7808EB431850
:10140000D8E90623CDE90023D8E90423D8E902016D
:10141000FFF7A4FE082370E7244D2B785B0158F8F2
:10142000030005F091FE02460B463046394606F0B1
:101430008BF900283FF462AF0022194BD9F87000F5
:101440001A6003232B7005F07FFEFFF757FE2B7801
:1014500008EB4318D8E90623CDE90023D8E9042393
:10146000D8E90201FFF77AFE092346E70F4B1B7804
:101470005B0158F8030005F067FE02460B46304654
:10148000394606F04DF960B300232B700A2334E788
:10149000890507208C0507207C0507208405072087
:1014A000780507203A0007208005072088050720D7
:1014B0000000494000409F400022304639460F4B13
:1014C00006F02EF968B103B0BDE8F04300F08DB826
:1014D000002230463946094B06F022F900287FF4F5
:1014E00001AF03B0BDE8F04300F07BB8FFF798F818
:1014F00000287FF403AF0123FFE600BF000049404E
:10150000014B1878704700BF3A000720014B18784C
:10151000704700BF89050720014B1868704700BF5E
:1015200084050720014B1868704700BF7805072025
:10153000034B1B78042B02BF0122024B1A70704729
:101540003A0007208005072008B5074B1A78012AC2
:1015500008D10321054A117000221A7002F015F813
:10156000034B186008BD00BF890507203A0007201B
:101570008C05072008B501210A2002F017F8002188
:101580000A2002F08FF801210B2002F00FF8002151
:101590000B2002F087F80121092002F007F8002152
:1015A000092002F07FF801210D2001F0FFFF0D203E
:1015B000002102F077F802F0E7FBBDE808404FF4A5
:1015C000FA6002F0BBBB02F0D9BB08B50D2002F0F7
:1015D000A1F8BDE80840B0FA80F10D20490902F0F9
:1015E00061B80121092002F05DB80021092002F054
:1015F00059B801210A2002F055B800210A2002F052
:1016000051B801210B2002F04DB800210B2002F04F
:1016100049B800001FB5154C154A6721204600F057
:1016200099FE2046002100F029FF2046002100F00D
:1016300033FF2046032100F046FF204601210D4ADA
:1016400000F058FF0023CDE9013300930123204629
:101650001A46194600F070FF0121204600F069FE8D
:1016600001F093FF044B186004B010BD98050720EB
:101670007C0F072000008243A405072008B501F075
:1016800084FF0D4A1368C01AB0F5FA7F12D303F530
:10169000FA730A48136000F0B1FE05F077FD084BBD
:1016A000C3E90001054800F0C9FE05F06FFD054BD8
:1016B000C3E9000108BD00BFA40507209805072065
:1016C00090050720A8050720014BD3E900017047CA
:1016D00090050720014BD3E900017047A8050720BA
:1016E000014800F020BE00BF9805072030B5002556
:1016F0004281C0E900159DF80C209DF8101045614D
:1017000041738273037330BD7FB504464089A37A69
:10171000000A8DF80D0020680D4616468DF80C3035
:1017200040B1637B019303AB0093012300F0E2F827
:1017300004B070BD60680028FAD0227A22B903F0A4
:101740007F038DF80C3003E0022A09D0012A0AD069
:10175000637B32460093294603AB00F0F6F9E7E7D6
:1017600063F07F03EDE703F07F0343F04003E8E716
:10177000F0B403460C4602B9027B042A13D803F1E5
:101780000F0529465C619818984209D09F7BE6B204
:1017900027B92E70240A01350138F5E78673F9E779
:1017A000F0BCFFF7B1BF0020F0BC704730B50B466E
:1017B0004189847A0546006885B0090A8DF80C4095
:1017C0008DF80D1040B10021CDE900216A7B03A9FD
:1017D00000F0E0F805B030BD68680028FAD0297A3A
:1017E00021B964F07F048DF80C4003E0022909D090
:1017F00001290AD0FF21CDE900216A7B03A900F06D
:10180000E0F9E7E704F07F04EDE764F03F04EAE77E
:1018100038B500F10F052946027B0446FFF7C6FFE5
:1018200078B129460020237B2344A3420BD0A27B1E
:10183000000222B99A7B1043013B0131F5E70A7897
:10184000F9E74FF0FF3038BD10B501600271437108
:1018500010BD10B504460068FFF7DAFF01232279B6
:1018600093406279013BD040184010BD70B50446EA
:1018700000680E46FFF7CCFF0122237961799A4078
:10188000531E03FA01F520EA05053340206803FAE8
:1018900001F12943027BBDE87040FFF769BF426058
:1018A0000022027220220170C260704710B5037AD4
:1018B000044653B12178606803F0FFFE606803F0CE
:1018C0004FFFB0FA80F0400910BD012100F003F88D
:1018D0000028EFD1F8E738B5044640680D4603F01C
:1018E0007FFE0120207225B12046BDE83840FFF779
:1018F000DDBF38BD2DE9F8431F46DDE90896C36812
:10190000154632449A420446884602D90020BDE872
:10191000F8830178406803F0D0FE7EB960682A46FB
:10192000036841465B6898478542EFD13946606855
:1019300003F0D5FEB0FA80F04009E8E7B9F1000FF6
:10194000ECD060683246036849465B689847864237
:10195000DCD1E3E72DE9F0411546C2680446AA420E
:101960000F4612D30178EAB2406803F09DFE85422B
:101970000BD10026B54206F1010809D96068036859
:10198000DB689847B8554646F4E70020BDE8F0818B
:101990000120FBE773B51D460023CDE900339DF818
:1019A0001C300446069EFFF7A5FF40B101233246D6
:1019B0002946204602B0BDE87040FFF7CBBF02B019
:1019C00070BD00002DE9F74F04460068134640B192
:1019D000012200920A464E2104F09BF803B0BDE8B4
:1019E000F08F227B5148002A0CBF4FF0010E4FF0C0
:1019F000800E0A781C251EEA020FA26808BF012685
:101A0000B0FBF2F018BF0026C0B2454301EB03085B
:101A10008845E3D073464FF0000B91F800C010B139
:101A20002F46013FFDD1677B023F012F49D894F932
:101A300010707A1C11D01CEA030914BF012700277B
:101A4000B7420AD06669D4F824A03768B9F1000F0C
:101A500032D047EA0A0737600126D4F818A0E26AB4
:101A6000DAF800701743CAF8007010B12F46013F32
:101A7000FDD194F91170013706D0E769A26A3F6879
:101A8000174218BF4BEA030BD4F818A0E26ADAF841
:101A9000007027EA0207CAF8007094F91170013744
:101AA00018BF81F800B0277B002F3DD15B00DBB26F
:101AB000002BB4D10131ABE727EA0A0737604E4665
:101AC000CBE7D4F818A0E26ADAF800701743CAF836
:101AD000007010B12F46013FFDD194F9107001370D
:101AE0000DD06769D4F824A0D7F800901CEA030F42
:101AF00014BF49EA0A0929EA0A09C7F80090D4F88C
:101B000018A0E26ADAF8007027EA0207CAF8007043
:101B100094F911700137C0D0E769A26A3F68174293
:101B200018BF4BEA030BB8E75B08C1E720A1070029
:101B300007B501228DF807100DF10701FFF742FFED
:101B40009DF8070003B05DF804FB2DE9F341D0F8E0
:101B500000C004460E4617461D46BCF1000F0AD0D1
:101B60006B46426892E8030083E803004E210CCBE9
:101B7000604603F0E9FE002194F90E0001F092FDA9
:101B8000089B05EB0308454508D13744B7420BD005
:101B9000204616F8011BFFF7CBFFF7E7204615F8A4
:101BA000011BFFF7C5FFEEE794F90E00012101F0DC
:101BB00079FD206808B103F011FF012002B0BDE8F3
:101BC000F0812DE9F341D0F800C004460E461746D7
:101BD0001D469DF82480BCF1000F0AD06B46426878
:101BE00092E8030083E803004E210CCB604603F02B
:101BF000ABFE002194F90E0001F054FD3744BE42C3
:101C00000AD1089BEE18AE420CD041462046FFF7A1
:101C10008FFF05F8010BF6E7204616F8011BFFF7CA
:101C200087FFECE794F90E00012101F03BFD2068ED
:101C300008B103F0D3FE012002B0BDE8F0812DE928
:101C4000F04F1F4685B0BDF93880A7EB010AA8EB1D
:101C50000209B9F1000FB8BFC9F10009BAF1000FCC
:101C6000B8BFCAF1000AD14583460C461646BDF8F6
:101C70003C3004DD3A46344647460E469046BC4268
:101C800005DD32464646904622463C4617463A1BFC
:101C900091B20091A8EB060181EAE170A0EBE1703E
:101CA000C2F3C03511B24645B4BF01224FF0FF3236
:101CB0000D4401906D100292BC421CDCDBF8002048
:101CC000D145D2F81080C7BF314622463246214660
:101CD00003935846C047019A039BAD1AA9B22DB28F
:101CE000002D05DA029A1644009A36B255182DB224
:101CF000013424B2E0E705B0BDE8F08F704710B4BE
:101D00000468A468A44610BC604730B4BDF808500D
:101D100004680295246BA44630BC604730B4BDF81B
:101D2000085004680295646BA44630BC604770B4E8
:101D3000BDF90C50BDF810600468CDE90356A46BE2
:101D4000A44670BC60472DE9F3411C461646054683
:101D50000F460368013CBDF82080DB683444984797
:101D600024B22B68CDF80480009428461C6A3246C1
:101D70003B463946A04728462B685B6A02B0BDE85F
:101D8000F04118472DE9F341174604461D460E461B
:101D90000368BDF82080DB689847CDE900782268A9
:101DA0006B1E33442046156A31463A461BB2A8479B
:101DB000204623685B6A02B0BDE8F04118472DE970
:101DC000F3471E4603680C46DB6805461746BDF917
:101DD0002880BDF82C9098472644B4422B680BDA33
:101DE000CDF800902146D3F818A03A46434628463D
:101DF0000134D04724B2F0E728465B6A02B0BDE860
:101E0000F047184713B50191B0F90E100268009120
:101E1000946B0022B0F90C301146A04702B010BDFF
:101E20002DE9F7439942164680460D461C46BDF9FA
:101E30002870BDF82C90026812D1BE42C2BF334652
:101E40003E461F46CDF828907B1C146B9B1B3246E8
:101E500029464046A4461BB203B0BDE8F0436047A4
:101E6000BE420AD19942C2BF0B4625461C46CDF858
:101E70002890631C5B1B546BE9E7D3689847CDE956
:101E80000079D8F8003040461F6A3246234629467A
:101E9000B8474046D8F800305B6A03B0BDE8F0436D
:101EA00018472DE9F34704460F4616461D460368BA
:101EB000BDF82C80DB68BDF9289098472368CDF8E1
:101EC0000080324639462046D3F81CA02B46D04726
:101ED000236809F1FF32CDF80080324439462046AC
:101EE000D3F81CA012B22B46D0472368CDF800804F
:101EF000324639462046D3F818A04B46D047013D1C
:101F00002368E919CDF8008020469D6932464B468A
:101F100009B2A847204623685B6A02B0BDE8F047D3
:101F20001847704701F00303B0F90A208376B0F92F
:101F30000830C90759BF8381C2818281C38170473C
:101F400030B50181002481814FF0FF31054D428180
:101F5000C281054A4460C0E9051205600461047746
:101F6000046230BDBC810800010100012DE9F04F81
:101F700091B017461E46026ABDF868308246BDF829
:101F80006C809DF870509DF8744006910393002A70
:101F900040F0B980B0F90C308B4240F33781B0F992
:101FA0000E30BB4240F33281062303FB0513002BA6
:101FB00040F32C8107EBC403002B40F32781037F00
:101FC0001BB9AF2E84BF0136F6B2DAF800305046A6
:101FD000DB68984705230A93002305938D4B06EB96
:101FE000860633440D93BBB207930D9B059ABDF84B
:101FF00014609B5C4FF000090893ABB20C93BDF8E2
:102000001830049305FB06331BB2099308230B9386
:10201000049B1E4436B2089ADAF80030D2074DD538
:10202000012D07991FFA89F23BD1012C39D1D3F840
:1020300010B0039B0A443146504612B2D847089B61
:1020400009F101095B0808930B9B4FFA89F9013BE1
:1020500013F0FF030B93DED1059B01335BB20593B5
:102060000A9B013B13F0FF030A93BED1039B434538
:102070000FD0012DDAF8003034D1012C32D104997F
:10208000CDF8008005319C693A460823504609B2D4
:10209000A0475046DAF800305B6A11B0BDE8F04F57
:1020A000184704FB0212039901910094D3F814B06D
:1020B00050462B46099912B2D847C0E7039A4245C9
:1020C000BDD0012D07991FFA89F206D1012C04D148
:1020D000D3F810B00A444346ADE704FB0212CDF832
:1020E0000480E2E70C9AE40002EB8201049ACDF846
:1020F00004800A44114600945C693A462B465046D7
:1021000009B2A047C5E7137A5168F61A1268F6B209
:102110000C9231F8362001EBC60304929A78012D17
:102120000892DA7893F906B00D9293F90520099296
:1021300001D8012C50D9BDF9243005930FFA8BF347
:1021400007934FF00008C1464646DAF80030504683
:10215000DB689847BBB20A935B440F930D9B9E428A
:1021600097D2079B0A9A334403FB04231BB20B93B9
:10217000002743460F9A02EB060B0FFA8BFB089AD7
:1021800097423CD25A1CD2B25B070E9207D1049BF5
:1021900004990C9A01339BB212F80190049319F040
:1021A000800F11D0012DDAF80030BDF8181017D1CA
:1021B000012C15D1099A1B69114439449C465A4691
:1021C0005046039B09B2E0474FEA490901370E9B8D
:1021D0005FFA89F9FFB2D2E7002307930593B0E7CE
:1021E000059A50463A4402FB0511039A09B2CDE91B
:1021F00000425B690B9A9C462B46E047E4E7089B4C
:10220000013698445FFA88F8F6B2A7E711B0BDE846
:10221000F08F00BFB37C0800F0B5026A04460B469D
:1022200085B0002A34D10A2908D1438A0282427E2D
:1022300003EBC2036382012005B0F0BD0D29FAD083
:10224000E17E007E657E71B10626B4F9101006FBB2
:102250000011B4F90C60B142C1BFB4F9121022826E
:1022600001EBC5026282E28ACDE902050192A28AEF
:1022700020460092B4F91010B4F91220FFF776FE50
:10228000237E228A03EB430302EB43032382D2E73C
:102290000A2907D100230382417E127B438A01FB76
:1022A0000233C7E70D29C6D0157AA942C3D3917A64
:1022B0009942C0D351685D1BEDB201EBC505A8780A
:1022C00028B3E97819B3E17E267E677E91B195F94E
:1022D00005100844B4F9101006FB0011B4F90C0005
:1022E000814207DD00202082B4F91210127B02FB2C
:1022F00007126282E28A20460192A28ACDE9026731
:102300000092B4F91010B4F91220FFF72FFE2979CA
:10231000227E238A01FB0233B8E7012938BF01215D
:102320000176417670470022C0E901224022027006
:10233000704713B50C460023816802226846FFF7F8
:1023400083FA2CB901216846FFF790FA02B010BD5C
:102350000021F8E72DE9F041044688B010200E4630
:10236000174601F0E9FC05463A463146FFF797FA71
:10237000284665600021FFF7AEFA054620B9002522
:10238000284608B0BDE8F0810126022320226168BA
:10239000CDE9006602A8FFF7A9F902A8FFF738FA0D
:1023A0002378B3EB102FEAD1182001F0C5FC4FF0D1
:1023B000000807463346616806220196CDF8008082
:1023C000FFF794F9424680213846A760FFF7D0F91D
:1023D00031462046FFF7ADFFD2E707B500238168FD
:1023E00002226846FFF730FA6846FFF732FAB0FA81
:1023F00080F0400903B05DF804FB000010B588B020
:102400000446FFF7EAFFA0B1012361680022CDE98D
:10241000003302A80223FFF769F902A8FFF7F8F9D1
:1024200000B205F0BDFA4FF0765104F097FC08B009
:1024300010BD0148FBE700BF0000C07F10B588B0A9
:102440000446FFF7CAFFA0B10123CDE90033022300
:1024500061681A4602A8FFF749F902A8FFF7D8F900
:1024600000B205F09DFA4FF0765104F077FC08B009
:1024700010BD0148FBE700BF0000C07F13B50C464C
:102480000523022281686846FFF7DEF92146684687
:10249000FFF7ECF902B010BD012310B50C468AB06D
:1024A000CDE900330522416804A8FFF71FF9042392
:1024B000032204A902A8FFF7C7F9214602A8FFF7E3
:1024C000D5F90AB010BD012310B50C468AB0CDE98C
:1024D00000330522416804A8FFF708F9002303220E
:1024E00004A902A8FFF7B0F9214602A8FFF7BEF938
:1024F0000AB010BD10B54B1E032B144688B017D878
:102500000123CDE900330F31CAB20223416802A88A
:10251000FFF7ECF8204604F039FE0022054B04F0EA
:102520008DFE05F03BF9002201B202A8FFF720F969
:1025300008B010BD000030402DE9F0431E464B1E90
:1025400089B0032B14469DF840709DF844809DF897
:1025500048901DD80123CDE90033CA1DD2B241688D
:1025600002A8FFF7C3F82146B9F1000F01D044F0EB
:102570000201B8F1000F01D041F004010EB141F0A9
:1025800008010FB141F01001002202A8FFF7F0F896
:1025900009B0BDE8F083002910B550DBB0F90C405C
:1025A0008C424CDD002A4ADBB0F90E40944246DDF5
:1025B000847E022C22D0032C29D0012C04D1D243BA
:1025C000048914440A4621B2012B26D0022B37D0AD
:1025D000002B34D11346002AB0F90840B8BFD31DF0
:1025E00043F3CF0304FB03110123C06A02F0070287
:1025F0009340425C22EA0302425420E0D243048921
:10260000013C611A448909B2224412B2DCE74489D0
:10261000013C641A114622B2D6E71346002AB0F9EB
:102620000840B8BFD31D43F3CF0304FB0311C36AB3
:1026300002F0070001228240585C02435A5410BD48
:102640001346002AB0F90840B8BFD31D43F3CF03A7
:1026500004FB03110123C06A02F0070203FA02F22D
:10266000435C5A40C8E782B06B4683E806004E21BF
:102670000CCB02B003F068B938B504461D46FFF72D
:102680005FFC104B104A236000239D4208BF154693
:102690006362C4E90A53FF2384F8333084F8363088
:1026A0009DF910304FF6FF7284F83730059B2046B5
:1026B000A365069BA286E365012384F86830034B7B
:1026C000636638BD0C8208007C0F07200A150001E4
:1026D00010B5044B04460360C06A08B103F0FEFA6B
:1026E000204610BD0C82080070B50446806A0D4675
:1026F00090B194F9301002F0E9FFA06A002103685C
:102700001B689847A06A294603681B689847A06A17
:10271000BDE8704003F024B8226C216D136823EAF1
:1027200001031360606A30B12A46BDE8704001239E
:102730004E2103F0BDB908228021A36BA66C186856
:102740000D4214BF3043B0431860E06BE66C036881
:10275000013A43EA06030360E06BE66C03684FEA64
:10276000510123EA06030360E7D170BD38B5044682
:10277000806A0D4680B1A16D02F04CFF002D20460D
:1027800014BFA721A621FFF7AFFFA06A88B1E16DB2
:10279000BDE8384002F03EBF606A18B1D4E91912B2
:1027A000FFF761FF626C616D136823EA0103136038
:1027B000E4E7626C616D13680B431360606A18B1E3
:1027C000BDE8384003F00AB938BDF8B50446806A60
:1027D0000D468F1840B394F9301002F077FFA06ACD
:1027E0000021036801261B689847BD42A06A17D0E4
:1027F0001F2E0CD902F0B4FF94F93010A06A02F039
:1028000065FFA06A0021036801261B689847A06A3B
:1028100015F8011B036801361B689847F6B2E4E718
:10282000BDE8F84002F09CBF226C216D136823EADA
:1028300001031360BD422AD0606A15F8012B20B154
:1028400001234E2103F034F9F4E708208026A36B1E
:10285000A16CD3F800C0324214BF41EA0C012CEA4B
:1028600001011960D4F83CC0E16CDCF8003001389B
:1028700043EA0103CCF80030E16BD4F84CC00B689C
:102880004FEA560623EA0C030B60E0D1D2E7F8BD0D
:10289000B0F90A300021DA1D48BF03F10E02B0F989
:1028A0000830D2105A43C06A03F02EBA2DE9F04125
:1028B0001E46C36A0446884615469DF81870002BCC
:1028C00034D02046FFF7E4FFA06A84F83180002866
:1028D0003DD14FF01C08012194F9350000F066FE4F
:1028E000012194F9360000F061FE94F93530854DF0
:1028F00008FB03F3EA18EB58383323645368236565
:1029000094F9363008FB03F3EA58E91802F138036A
:1029100063644B686365916B0B439363606A002843
:1029200000F0A6800FB303F0B2F81EE0B0F90A3051
:10293000D81D48BF03F10E00B4F90830C010584349
:1029400003F0C4F9E0620028BBD1BDE8F081002D9E
:1029500040F08C80B4F90A30202B0CBF3C253D257B
:1029600084F830500FB102F03BFEDEB194F937002D
:10297000002817DB012100F019FE012194F937002E
:1029800000F090FE012000F002FE002194F93700D3
:1029900000F088FE0A2000F0FAFD012194F93700CA
:1029A00000F080FEA06A002800F08680A16D02F091
:1029B00031FE042220465449FFF707FF6189204673
:1029C0000139C9B2FFF790FE504904222046FFF7B3
:1029D000FCFE94F931302046012B0CBF102114214C
:1029E000FFF782FE042220464949FFF7EEFE8F23BF
:1029F000484A84F86030A368934275D002F500120B
:102A0000934266D194F931301225012B0CBF9F23DC
:102A1000CF2384F86030DA212046FFF765FE29468F
:102A20002046FFF761FE81212046FFF75DFE20462C
:102A300094F86010FFF758FED9212046FFF754FEA6
:102A400094F931302046012B0CBF2221F121FFF7F0
:102A50004BFE204606223049FFF7B7FEA06A002849
:102A600044D0E16D02F0D6FD01206EE76DB277E74C
:102A7000012194F9330000F099FD012194F934000B
:102A800000F094FD94F9333008FB03F3EA18EB5897
:102A90003833A363536894F93420A36408FB02F22B
:102AA000AB58A91803F13802E2634968E1649A6BF4
:102AB00022EA01029A6358E7606A18B1D4E9191250
:102AC000FFF7D1FD626C616D136823EA01031360A7
:102AD0006FE7124A934207D194F93130012B0CBFB2
:102AE0001023AF2384F86030022594E7626C616D97
:102AF00013680B431360606A0028B5D002F06EFFC4
:102B0000B2E700BF208408006482080068820800E1
:102B10006C820800800020007082080060001000B5
:102B200070B5002ABDF810403FDBB0F90A5095425D
:102B30003BDD0029BEBF5B1800211BB2B0F9085075
:102B40005E18AE42C4BF6B1A1BB2002B2DDDD6102F
:102B500005FB0611C06A012C014402F007004FF08A
:102B6000010202FA00F2D2B216D0022C0BD0E4B964
:102B7000D2430B44D2B2994217D011F8010B104046
:102B800001F8010CF7E70B4499420ED011F8010B44
:102B9000504001F8010CF7E70B44994205D011F8B9
:102BA000010B104301F8010CF7E770BDF0B50029E7
:102BB000BDF8145077DBB0F90860B14273DA002A2F
:102BC000BEBF9B1800221BB2B0F90A40D718A7421B
:102BD000C4BFA31A1BB2002B65DDC2F3C40406FBFD
:102BE0000416C76A12F00702DBB207EB060424D012
:102BF000C2F10802D2B2934238BF4FF0FF0C2C4909
:102C000038BFA2EB030E895C3CBF4CFA0EFC0CEA09
:102C10000101012D07D0022D2ED04DB917F806C0A5
:102C20002CEA010103E017F806C041EA0C01B9558E
:102C3000934238D3B0F908100C449A1AD2B2072A3A
:102C40000ED9022D1DD113462178083BC9432170AE
:102C5000B0F90810DBB2072B0C44F5D802F00702DC
:102C60000AB3144B012D9B5C1AD0022D1CD0D5B990
:102C7000227822EA030315E017F806C081EA0C0166
:102C8000D5E7291E18BF012113464942C9B2217058
:102C9000083BB0F90860DBB2072B3444F7D8DDE716
:102CA000227813432370F0BD22785340FAE700BF27
:102CB000548208005C82080030B41446827EBDF85D
:102CC0000850022A0DD0032A18D0012A11D1E4435A
:102CD0000289144424B20A460295214630BCFFF70B
:102CE00065BFE44342891444CA18018924B2891A91
:102CF00009B22246029530BCFFF712BFCA184189BB
:102D0000891A09B2E7E730B41446827EBDF808504C
:102D1000022A0DD0032A18D0012A11D1E218048901
:102D2000A41A24B20A460295214630BCFFF7F8BE29
:102D3000C94302891144E218448909B2A41A24B291
:102D40002246029530BCFFF731BFC9434289114486
:102D500009B2E7E7F8B50446806A002841D0A16DC2
:102D600002F058FC052220464749FFF72EFD218935
:102D700020460139C9B2FFF7B7FCD4E90A07B4F914
:102D80000A30DD1D48BF03F10E05EB1025895D43B8
:102D9000ADB23D4400283BD094F9301002F096FCCF
:102DA000A06A4021036801261B689847BD42A06ABB
:102DB00024D01F2E0CD902F0D3FC94F93010A06A55
:102DC00002F084FCA06A4021036801261B68984732
:102DD000A06A17F8011B036801361B689847F6B212
:102DE000E4E7606A18B1D4E91912FFF73CFC626CA1
:102DF000616D136823EA01031360B3E702F0B0FCCE
:102E0000A06A002834D0E16DBDE8F84002F002BCB1
:102E1000226C216D13680B431360AF42F0D0606ADF
:102E200017F8012B20B101234E2102F041FEF4E7F7
:102E30004FF0080E8020A36BD4F848C01E680242F1
:102E400014BF46EA0C0626EA0C061E60E66BE16C2F
:102E50003368BEF1010E43EA01033360E66BE16CB7
:102E600033684FEA500023EA01033360E3D1D4E72B
:102E7000626C616D13680B431360606A18B1BDE842
:102E8000F84002F0ABBDF8BD7682080001817047C2
:102E9000002310B58372036804461B68984718B175
:102EA000A37A43F00303A37200F06FFB606010BDD0
:102EB00038B5837A044623F00403837203681B68E1
:102EC0009847A37A0546C3F3400398420AD000F01E
:102ED0005CFBA37A606083F00203A372A07AC0F364
:102EE000800038BD00F051FB6368C01A2389984206
:102EF000F4D3A37A03F001039D42EFD000F045FB29
:102F0000A37A606083F0010343F00403A37200F02E
:102F10003CFBE368C01A206100F037FBE060DDE7AE
:102F200010B5044600F031FBE368C01A10BD807A8A
:102F300000F001007047807A00F00500431F5842FE
:102F4000584170470A210022018103494260827280
:102F500001600275704700BF8482080038B50446DE
:102F60000D4603685B68984720462575BDE83840E4
:102F7000FFF78EBF2DE9F04F90F87050044689B0EE
:102F800025B90025284609B0BDE8F08F00F0FDFA0C
:102F9000636CA26DC31A9A420390F2D8A36B216CA2
:102FA000D3E900ABD1E9000152465B4603F08EFF46
:102FB000D4E91423CDE904015046594603F086FFB5
:102FC000D4E90823CDE90601DDE9040104F036F96E
:102FD000D4E9122303F07CFF06460F4694F87130C3
:102FE000C4E9126702936BB9D4E90623DDE906014F
:102FF00004F024F902460B463046394603F066FFDA
:10300000C4E91201D4E91289D4E91A67404632466C
:103010003B46494604F0A2FB002838D0C4E91267B9
:10302000029B002B42D0D4E90623DDE9040104F021
:1030300005F980468946D4E90A23DDE9060104F052
:10304000FDF802460B46D4E9120103F03FFF424669
:103050004B4603F03DFF8046894602460B4630460C
:10306000394604F05DFB50B9D4E9186742464B4637
:103070003046394604F072FB08B946464F46E36BCA
:10308000C3E90067039BC4E914AB63647AE7D4E93E
:10309000182340464946CDE9002304F041FB0028AF
:1030A000BED0DDE90023C4E91223B9E74FF00008E0
:1030B0004FF00009BFE700002DE9F047DDE908897E
:1030C00014461D46824600220023204629460C9EB7
:1030D00004F026FB00285AD100220023404649462E
:1030E00004F01EFB002852D1DDE90A010022002372
:1030F00004F016FB00284AD1731ECAF834605E4201
:103100005E41CAE90289DDE90A238AF87160CAE9E9
:103110000423CAE90045DAF8580004F015F8002243
:103120001C4B04F0B5F9CAE9064506460F460246AF
:103130000B464046494604F081F880468946DDE961
:103140000A013B463246CAE9088904F0A1F906465D
:103150000F46DAF83030CAE90A67012B17D1224648
:103160002B460020002103F0B1FE4246CAE90601C9
:103170004B460020002103F0A9FE3246CAE90801AF
:103180003B460020002103F0A1FECAE90A01BDE888
:10319000F08700BF00408F4030B5416B87B0DDE95C
:1031A0000C450491CDE90245DDE90A45CDE900452C
:1031B000FFF782FF07B030BDF8B50D1E044620DDD5
:1031C000284603F0D1FF0646A06D0F4603F0BCFF72
:1031D00002460B463046394604F05AF902460B4681
:1031E00006460F46D4E9080104F028F83246C4E93F
:1031F0000801D4E90A013B4604F04AF9C4E90A018E
:10320000A565F8BD2DE9F84FDDE90A6714461D46AE
:10321000824632463B462046294604F095FA00286D
:1032200037D19AF87030CAE91845CAE91A67002BF5
:103230002FD0DAF83CB03246DBE900893B46404605
:10324000494604F08BFA78B1CBE90067DAE91267F6
:10325000DAE91A45304622462B46394604F07EFA12
:1032600068B1CAE9124514E022462B464046494659
:1032700004F056FA0028E9D0CBE90045E6E7DAE9A0
:103280001845304622462B46394604F049FA0028B4
:10329000E7D1BDE8F88F2DE9D043C36BD0E91A8997
:1032A000D3E90067C0E91267836B0446D3E90023C2
:1032B0003946C0E9142342464B46304604F04EFAE4
:1032C00010B1C4E9128909E0D4E9188930464246B0
:1032D0004B46394604F024FA0028F2D1BDE8D083E9
:1032E000012938B504460CBF0125002504D190F80A
:1032F00070300BB9FFF7CFFF84F8705038BD38B588
:1033000090F8703004460D46D3B1036B8B4217D052
:10331000D0E906230021002003F0D8FDD4E90823DA
:10332000C4E906010020002103F0D0FDD4E90A23FE
:10333000C4E908010020002103F0C8FDC4E90A0126
:10334000256338BD0000000010B503640023C0E908
:103350000E1280F8703000220023C0E9182312A357
:10336000D3E90023C0E91A236423044686B00F99E9
:103370008365FFF7C4FF0E9B20460493DDE90C2311
:10338000CDE90223DDE90A23CDE90023DDE90823A5
:10339000FFF792FE00F0F9F8A36DC01A60642046B2
:1033A00006B010BDAFF300800000000000E06F40E9
:1033B000F0B589B0149D0446DDE912670795012533
:1033C000CDE90467DDE910670695CDE90267DDE91F
:1033D0000E67CDE90067FFF7B7FF204609B0F0BDE3
:1033E0007047000008B500F0CFFC01F0A7F9FFF727
:1033F000F7FF012000F0CBF8064800F04FFFFCF784
:1034000099FE054CFCF7A9FE002CFBD001F090FAC8
:10341000F8E700BFE009072031490800F8B50127A7
:103420000A4B0B4EDD6CB5FA85F4E4B21F2C00D9C3
:10343000F8BDC4F11F04E4B256F8243003B1984734
:1034400007FA04F425EA0405EDE700BF000E0E407C
:10345000B0050720F8B501270A4B0B4EDD6CB5FA15
:1034600085F4E4B21F2C00D9F8BDC4F11F04E4B206
:1034700056F8243003B1984707FA04F425EA040506
:10348000EDE700BF00100E4030060720F8B5012719
:103490000A4B0B4EDD6CB5FA85F4E4B21F2C00D953
:1034A000F8BDC4F11F04E4B256F8243003B19847C4
:1034B00007FA04F425EA0405EDE700BF00120E4008
:1034C000B0060720F8B501270A4B0B4EDD6CB5FAA4
:1034D00085F4E4B21F2C00D9F8BDC4F11F04E4B296
:1034E00056F8243003B1984707FA04F425EA040596
:1034F000EDE700BF00140E4030070720FEE700F0A4
:1035000010B800F00EB808B500F009F828B900F0BE
:1035100069FABDE8084001F08FBB08BD7047002084
:103520007047FEE7044A0346116809B90349116070
:103530001068034413607047B0070720F810072095
:103540004FF0FF3070474FF4005300204B6070473E
:103550000120704700207047002070470B4610B5CF
:1035600006485C1AA24202DC22EAE27010BD4469FD
:10357000A407FCD513F8014BC461F2E700080E4024
:10358000FEE770474FF0FF30704701F05DBB38B584
:10359000044648B101F058FB0546FFF7BFFF01F0B4
:1035A00053FB431BA342F8D338BD70472DE9F843C2
:1035B0001C23394F044603FB00731A7B0D4692B15E
:1035C000364E325C02F00F02042A03D1597E344891
:1035D00001F03CFA335D03F00F02022A28D83BB316
:1035E000022A02D125BBBDE8F883012A20D1022D91
:1035F000F9D0012D20D11C25654357F805801B0902
:103600003D4414BF052104212B6940466A6801F03E
:103610006FFA335D23F00F0343F003033355D8F8FB
:1036200018300133DFD1A868BDE8F84301F0C0BA13
:10363000012DE0D0022D1AD0002DD4D14FF01C085E
:1036400008FB04F807EB0809D9F8080001F090FA24
:103650002B460321D9F8042057F8080001F048FA56
:10366000335D23F00F0343F002033355BBE71C2502
:10367000654307EB0508D8F8080001F079FA012343
:103680000321D8F80420785901F032FA335D23F091
:103690000F0343F00103E8E720840800940A0720A1
:1036A00000000C401C23F7B5184E044603FB0063D2
:1036B0001B7B0D4643B3164F3B5C03F00F03052BFA
:1036C00002D10121FFF772FF1C203B5D03F00F03C5
:1036D00043EA05133B554443331934595E68204689
:1036E000314601F031FA38B92A463146204603B056
:1036F000BDE8F04001F0B4B901232A4600933146F9
:103700000023204601F0E2F903B0F0BD2084080058
:10371000940A072010B50F4B04461B5C03F00F0200
:10372000032A01D1180910BD042A02D10021FFF794
:103730003DFF1C204443084B1A19107B0028F2D08F
:1037400018590321526801F090F9431E584258411C
:10375000E9E700BF940A0720208408002DE9F04122
:1037600005460C460E468F18BE42A6EB040807D04D
:103770002B6828461B6816F8011B98470028F3D1D0
:103780004046BDE8F08170B50368044608460D4622
:103790005E6802F0B5FE2946024633462046BDE883
:1037A0007040184709B1FFF7EEBF0846704708B5EB
:1037B000FFF7F8FF08BD08B5FFF7F4FF08BD036881
:1037C0001B6818470149FFF7DEBF00BF8C82080065
:1037D00038B50546FFF7E6FF04462846FFF7F2FF37
:1037E000204438BDFFF7F4BF0023012A98BF0A2206
:1037F000F0B58BB00C468DF8243009A9B4FBF2F675
:10380000274602FB1645EBB2092D94BF3033373300
:10381000DBB2BA42344601F8013DEFD9FFF7C2FFEF
:103820000BB0F0BD10B422B9026810BC1268C9B266
:10383000104710BCD2B2FFF7D7BF00002DE9F84FF8
:1038400019460446104692461F469DF8286003F02C
:103850008FFF28B14A492046BDE8F84FFFF793BFD4
:1038600027F000454FF0FF3250462946454B03F004
:103870007FFF48B94FF0FF3250462946414B03F0D5
:1038800059FF08B94049E6E74FF0604250463946D3
:103890003E4B03F063FF08B13D49DCE74FF0604267
:1038A000504639463B4B03F03BFF0028F4D1002241
:1038B00000235046394603F033FF054630B12D2131
:1038C0002046FFF77CFF054607F100474FF0000B4D
:1038D00000204FF000083049DFF8C0905FFA8BF30A
:1038E0009E4206D942464B4603F0D2FD0BF1010B36
:1038F000F4E73B46524603F0EBFA8946804603F074
:1039000075FF074603F020FC02460B464046494639
:1039100003F0DCFA0A228046894620463946FFF742
:1039200063FF054446B32E212046FFF748FF4FF0C2
:10393000000ADFF868B00544F6B15B4652464046DF
:10394000494603F07BFC8946804603F04FFF0A227C
:10395000014607462046FFF747FF0544384603F077
:10396000F3FB02460B464046494603F0AFFA013EE0
:1039700080468946F6B2DFE72846BDE8F88F00BFEB
:103980008F820800FFFFEF7F93820800FFFFEF4167
:1039900097820800FFFFEFC10000E03F00002440D5
:1039A0009DF800100091FFF749BF37B59DF818103A
:1039B00005460091FFF742FF04462846FFF702FF45
:1039C000204403B030BD0000014B1860704700BFB9
:1039D000700007204FF0FF32014B1A60704700BFA4
:1039E0007000072008B5054A1368591C04D0013B34
:1039F00013600BB9024B984708BD00BF7000072049
:103A00000100072010B580220021044602F07CF955
:103A100000232046C4F88030C4F8843010BDD0F8AC
:103A20008030D0F88420013303F07F039A421EBF18
:103A3000D0F880208154C0F8803070470120704752
:103A40000369D3F88000D3F88430C01A00F07F00F7
:103A500070470369D3F88010D3F8842091421DBFCA
:103A6000D3F88420985CC0B24FF0FF3070470369F0
:103A7000D3F88010D3F8842091421DBFD3F884205E
:103A8000985CD3F884204FF0FF301EBF013202F063
:103A90007F02C3F8842070474369D3F88010D3F8BD
:103AA00084209142F9D1826953699B05FCD5704706
:103AB00070B5836942695E69D2F88450B607D2F85E
:103AC000804001D5A54218D0D2F8803001335C4245
:103AD00004F07F0403F07F0358BF6342D2F88440B0
:103AE0009C42FBD0D2F8804011554269C2F8803028
:103AF000022283699A60012070BDD961FBE7000052
:103B000010B503690446D3F88420C3F88020036805
:103B10005B699847012194F91C305A0903F01F038F
:103B200001FA03F30449203241F82230206ABDE84B
:103B3000104001F03DB800BF00E100E030B54FF0AB
:103B4000000C4FF47A75C0E901C5054D0277056098
:103B5000039D03620561049DC0E9055130BD00BFAE
:103B6000A482080070B50446006A0D46164600F0AF
:103B7000FFFF40F20222A369C3F82021AC22A3690F
:103B80001A60A3695E60154BA2691968B1FBF5F173
:103B9000090911624FF0FF32A369DA606122A3695B
:103BA0009A60012294F91C30590903F01F0302FAAC
:103BB00003F30B4A42F8213000232269C2F8843013
:103BC0002269C2F880306269C2F884306269C2F842
:103BD00080305022A3691A6070BD00BFAC0007207E
:103BE00000E100E04FF40062FFF7BCBF38B5836925
:103BF00004465D69EA0704D599690069C9B2FFF70F
:103C00000EFFAB0714D56369A269D3F88400D3F81B
:103C10008010884215D0D3F884105B5CDBB2D3618E
:103C20006269D2F88430013303F07F03C2F8843034
:103C300015F0600F1FBFA269136843F4807313600F
:103C400038BD0223D360F3E74FF40C62FFF78ABF5D
:103C500073B50446079E0D460196069E0096FFF733
:103C60006DFF2046024B6562236002B070BD00BF4D
:103C7000D082080010B5029C401AE41A4443511A3D
:103C800094FBF1F4E01810BD10B50446006802F092
:103C900025F8204610BD10B50446006808B102F0B2
:103CA0001DF80023C4E90133236010BD38B5044674
:103CB0000D460068013102F0F9FB10B1C4E90005BE
:103CC000012038BD10B50368044623B143688B4218
:103CD00001D3012010BD2046FFF7E8FF0028F9D0EE
:103CE000A368002BF5D122681370F2E770B50E4679
:103CF000114604461546FFF7E5FF20B92046FFF7B9
:103D0000CAFF204670BD31462068A56002F0F0FB76
:103D1000F7E738B5002304460D46C0E90033836059
:103D200039B1084602F0ECFB294602462046FFF76F
:103D3000DDFF204638BDFEE701F0C8BF0102B1F546
:103D40007A7F0DD3B1F57A1F0CD24FF47A70B1FBA4
:103D5000F0F141EA0141054841F4005101F0A8BAEF
:103D60000121F6E740F6FF71F3E700BF501A0E405D
:103D7000014801F09FBA00BF501A0E40014801F0FF
:103D80009DBA00BF501A0E40FFF7F2BF044BD3F8A4
:103D90000002D3F80432C01AC0F30800704700BF15
:103DA000CC07072040F2FF1070470000064BD3F805
:103DB0000012D3F8042291421ABFD3F80422985C6F
:103DC0004FF0FF30704700BFCC07072007B50368EE
:103DD0008DF8071001225B680DF10701984703B0C9
:103DE0005DF804FB38B50F4B0546D3F80012D3F845
:103DF0000422914213D0D3F8042202209C5CD3F811
:103E000004220132C2F30802C3F8042200F00AF9C6
:103E100018B12B682846DB699847204638BD4FF01B
:103E2000FF30FBE7CC070720032000F01ABA0000A0
:103E3000012270B5144E56E8003F13B1BFF32F8F27
:103E400070BD46E80023002BF5D1104DD5F8004297
:103E5000D5F804320134C4F30804A34208D0022088
:103E600000F0E0F838B94FF48042094BC3F828223B
:103E700000233360E4E7022000F026F9D5F8003291
:103E8000C5F80042E854E3E7C8070720CC0707203D
:103E900000C00A4010B5064B0446DB7923B103206D
:103EA00000F024F9002802DC01230020636010BD2B
:103EB0007800072003784222023303700149002072
:103EC00000F03AB9F482080003784222023303700A
:103ED0000149002000F030B93683080008B50278A7
:103EE0004378A12A08D1212B28D107220020144988
:103EF00000F022F9012008BD212A1FD1202B04D176
:103F000007210F4800F06AF9F4E7222B10D18278DC
:103F10000B4BDA711A68B2F5966FEBD1DB79DB07E0
:103F200003D4FA20FFF750FDE4E7FFF753FDE1E784
:103F3000232B03D14288034B1A60DBE70020DAE72A
:103F400078000720740007204FF47A720021034B99
:103F5000C3E90112024A1A60704700BFB407072084
:103F60008083080070B50E46002544685CB1236864
:103F7000314620465B689847002802DBE468054428
:103F8000F4E74FF0FF35284670BD38B50D4644685C
:103F90003CB12368294620469B68984710B9E468DD
:103FA000F6E7204638BD38B50C4645683DB12B686C
:103FB00021462846DB689847ED680444F6E72570FB
:103FC00038BD38B50D4644683CB1236829462046C3
:103FD0001B68984710B9E468F6E7204638BD000032
:103FE000064A136813F0010306D140F20240044967
:103FF000C1E900030123136001487047D409072079
:10400000D8090720064BD3F83021D10703D45A68CA
:10401000D207F8D570470122C3F86021704700BF6E
:1040200000C00A4038B5094C256872B6BFF35F8FEF
:10403000002300F00F00236001F0F8F825B1012300
:104040002360BFF35F8F62B638BD00BFA8000720B2
:104050002DE9F8431A4B0E461B68144663B3194FFB
:10406000D7F8008072B6BFF35F8F002300F00F0512
:1040700028463B6001F0DAF8844228BF044606EB8C
:1040800004094E4505D0284601F096F806F8010BC4
:10409000F7E734B1284601F0C9F810B9284601F015
:1040A000CFF8B8F1000F04D001233B60BFF35F8F5E
:1040B00062B62046BDE8F8834FF0FF34F9E700BF51
:1040C000EC090720A800072007B501220DF1070120
:1040D00000F00F00FFF7BCFF012814BF4FF0FF30C6
:1040E0009DF8070003B05DF804FB00002DE9F843DC
:1040F000104B0E461B681546B3B100280CBF4FF09D
:1041000040094FF40079174600F00F0477B14F458E
:10411000B84628BFC84631464246204600F0FAFF5E
:10412000A7EB08074644F1E74FF0FF352846BDE806
:10413000F88300BFEC0907202DE9F0410C4B0D4E30
:1041400014461B88328888469A420BD2254600279F
:1041500045B12A4608EB0701002000F0DBFF0744C9
:104160002D1AF5E73388204623443380BDE8F081DB
:10417000E8090720EA090720F8B5012906460C4698
:1041800000AF29DDCB1D23F00703ADEB030D02F0DB
:10419000B7F9431C5B008DF800300323701E6D4699
:1041A000022200268DF80130A2420CDA10F8011F1D
:1041B00049B1531CDBB2A342A95403D00232EE54DE
:1041C000D2B2F1E7224629460020FFF7B5FF0038BA
:1041D00018BF0120BD46F8BD0020FBE738B50C46EE
:1041E000054600F067FF22462946002000F0F8FF50
:1041F00000F074FF204638BD10B5037904461BB9A2
:10420000BDE81040FFF76ABEFFF7EAFE2146BDE8B1
:104210001040FFF7D6BE002307B50DF107008DF85B
:104220000730FFF747FEFFF7DBFE0DF10701FFF751
:1042300099FE9DF8070003B05DF804FB002307B565
:104240000DF107008DF80730FFF73EFEFFF7C8FEBF
:104250000DF10701FFF786FE9DF8070003B05DF83A
:1042600004FB10B5044600F0E1FF20B12046BDE894
:10427000104000F0F9BF10BD10B50446054800F02D
:1042800051FE00F055FE10B90122034B1A60204682
:1042900010BD00BFC9420800F009072008B5054B52
:1042A000186828B100F0A4FE00220120024B1A6019
:1042B00008BD00BFF0090720EC0907200148FFF7FF
:1042C000DBBF00BFE00907202DE9F041AB4C88B00F
:1042D00063681E0717D5236842F2320123F07F037B
:1042E00023602368002043F08003236000F0A4FED5
:1042F0000423C4F8F0314FF480530022A361A04B93
:104300001A600823A3609D4B5A68550408D5022003
:10431000C3F86801FFF786FE10B19A48FFF788FDE1
:10432000964B5A68540744BF04229A605B68D804CD
:1043300040F1BF8000F0DEFE002800F0BA800822C5
:10434000002001A900F04CFF00F0DCFE9DF90430D4
:104350009DF80450002B0DDA00F0A4FE15F0600467
:1043600040F0AD819DF80530BBB99DF8044024B9FB
:10437000214607E000F0A6FEF0E7834B1B78012BF7
:1043800008D10121002000F005FF0021002000F0ED
:1043900001FF8CE000210846F5E7012B08D19DF8CC
:1043A0000630012B01D1794BE8E7774B1C70DFE732
:1043B000032B74D19DF80630012B05D1734A214699
:1043C0002046137000F0E6FE9DF8061029B9012280
:1043D0006D4B08461A7000F0DDFE9DF80630022B8A
:1043E00065D19DF80430002B61D1BDF80830190764
:1043F0005DD16248436923F001034361036843F4DC
:1044000000630360BDF808301B0A013B032B4ED844
:10441000DFE803F032394002FFF7F4FD0023C0F873
:104420001833C0F8283341F23013C0F80831D0F8FF
:10443000083143F00203C0F80831504BD3F838215B
:104440005203FBD5DA69524942F00402DA61514A5B
:10445000514B12F8010B03F8010B8B42F9D1474B7A
:104460001A6842F400421A600122C3F868214FF42E
:104470008042C3F82822FEE7FFF7C4FD036843F437
:1044800000530360FEE7FFF7BDFD036843F480437C
:104490000360FEE7FFF7B6FD404B4361FEE7052BE7
:1044A0000AD100F0FFFD9DF8060000F0F1FE00F0DB
:1044B00009FE08B0BDE8F081062B40F0CF809DF8E2
:1044C0000760374D022EBDF80A80364F2C8022D16E
:1044D0003C80FFF7A0FE01238DF81130C0238DF83A
:1044E0001330FA2309228DF814302B888DF8100030
:1044F000134403A920468DF80C20ADF80E308DF83A
:1045000012408DF80D602C80A7F80080FFF714FE94
:10451000FFF781FECBE7A7F80080FFF761FD01A957
:10452000FFF733FD002803D0C1DC00F075FEC0E7C3
:10453000012E17D1BDF80A201B4B082A08D10121F2
:1045400019601A49D2B25AB10020FFF7F5FDAEE763
:1045500018681749154B002818BF1946112AF1D9B8
:104560000A78F1E7032E45D19DF8063023BBBDF84C
:104570000A20032A3BD90F49F2E700BF00C00A40D6
:10458000EC090720B4070720E1090720E20907200A
:1045900035001920E0830800000019207FF0077E15
:1045A000EA090720E8090720E4090720CE8308006C
:1045B000BC830800A0830800022B07D1BDF80A10B5
:1045C0004548FFF7D9FD0028AFD070E7012B03D194
:1045D000BDF80A104148F4E7032BA6D1FFF700FD10
:1045E00003A9FFF7E0FCBDF80A1003A8E9E73C497E
:1045F000D2B2A8E7062E06D1BDF80A20092A2BD888
:104600003849D2B29FE7072E8FD10024BDF80A8027
:104610002C803C80FFF712FE01238DF81130C0235F
:104620008DF81330FA2309228DF814302B888DF879
:104630001000134403A920468DF80C20ADF80E306D
:104640008DF812408DF80D602C80A7F80080FFF7E0
:1046500073FDFFF7F3FD2AE7224981E7072B3FF4BB
:1046600064AF082B03D1204B1968C9B28EE6092B21
:1046700018D1EB067FF459AF00211C4B53F8042BE3
:104680000AB10131FAE7194800F0EEFC9DF8062066
:10469000154B1A600222164BC3F8F8214FF48042E2
:1046A0009A6104E70A2B02D1124B19786EE60B2BA4
:1046B0007FF4FDAE9DF806200E4B1A60F7E600F081
:1046C000F1FC00210C4BBDF80A2019800B4B01A80E
:1046D0001A80FFF791FD76E7B0830800A4830800F5
:1046E000A083080015840800EC090720800007203B
:1046F00000C00A40F4090720EA090720E80907205A
:10470000704700000148FFF771BA00BFF8090720A1
:1047100070477047704700000148FFF767BA00BF55
:104720001C0A07200148FFF761BA00BF440A0720AE
:104730000148FFF75BBA00BF6C0A07202DE9F04182
:1047400000F0C2FD4FF47A723D4EF0213368002430
:10475000B3FBF2F34FF0E022013B5361394B83F896
:10476000231007239461136101F08CFA2046002185
:104770000134FEF797FF4F2CF8D14FF0FF34324D44
:10478000324FDFF8CC80334BC5F8A0404FF4407275
:10479000C7F8A0400121C3F8A04028460023C8F86C
:1047A000A04000F0A5F901210020FEF77BFF0023C7
:1047B0004FF440620121284600F09AF900234FF49B
:1047C00040520121284600F093F9002330220221B3
:1047D000404600F08DF900234FF440620121384635
:1047E00000F086F9002303220121284600F080F919
:1047F00000234FF440420121384600F079F925208A
:1048000000F0B6F931680C23134A144800F0B2F8EE
:1048100001234FF440120021104800F00AF9002251
:104820000E48114600F0F0F821460C4800F016F949
:104830000A4800F00FF9BDE8F041FEF7B6BE00BF30
:10484000AC00072000ED00E0000E0E4000100E400E
:1048500000140E4000120E40002D310100000C40EB
:104860002DE9F743224C234D2046FFF7CBF828468D
:10487000FFF7C8F80823DFF880801A461F49CDE902
:1048800000451F4E1F48FFF759F91F4C4046FFF7E0
:10489000B9F8DFF878903046FFF7B4F81C4F20469F
:1048A000FFF7B0F81B4D4846FFF7ACF83846FFF766
:1048B000A9F82846FFF7A6F81123CDE900891A4682
:1048C00015491648FFF7C4F91223CDE900671A46C7
:1048D00013491448FFF7BCF91423CDE900451A46E3
:1048E00011491248FFF7B4F903B0BDE8F08300BFE7
:1048F000E40A0720040D07206C0B072000080E4077
:10490000F40B0720F80907207C0C07208C0D0720EA
:10491000140E07209C0E0720008009401C0A072067
:1049200000C00940440A072000400A406C0A0720E2
:1049300008B50C48FFF784F808B1FFF7E1FE0A4814
:10494000FFF77EF808B1FFF7E3FE0848FFF778F8B5
:1049500008B1FFF7DEFE0648FFF772F808B1FFF76F
:10496000D9FE08BDF80907201C0A0720440A0720C1
:104970006C0A0720F0B591B06C46214D07460E46F3
:1049800094469E460FCD0FC40FCD0FC40FCD0FC45C
:1049900095E80F0084E80F00012340F202223B60FB
:1049A00000237B60C7F820214FEA4C02B6FBF2F4EB
:1049B00002FB1462C7F80431C7F8143102B9013C94
:1049C000631C5B00B6FBF3F60E4B6946B6FBF3F6D1
:1049D00000220EFB06F351F8040B984206D2013276
:1049E000102AF8D14FF0FF3011B0F0BD7B682402DF
:1049F000A4B21C4344EA024400207C60F4E700BFF8
:104A00004C8E080040420F004368D20723F08F030A
:104A1000436004D5436843F0800343607047CB078D
:104A200006D5436801F00E01194341F001014160D0
:104A3000704710B50906446801F0706121431B07F7
:104A4000114303F040531943416010BD01238B40D3
:104A5000436170474FF6FF7343617047816270474F
:104A60000AB141667047016670470439012994BF55
:104A7000836BC36B134214BF012000207047426454
:104A800005290AD8DFE801F00A030B0A0A0A016FB8
:104A9000036F0B4023EA0203036742607047036F12
:104AA0001343F9E7D30741644CBF4166016612F036
:104AB0000A0F14BF01624162930702D5C0F880104B
:104AC00001E01307FAD441610160704710B5029C00
:104AD00041643CB141663BB101653AB1016301619A
:104AE000016010BD0166F6E74165F6E74163F6E750
:104AF0000329F7B5074616461C4620D004D84D1E9C
:104B0000012D10D9002015E00B1F012BFAD8053913
:104B100004F001034A4200934A41C4F38003314642
:104B2000FFF7D4FF09E0FFF7AAFF14F001007A6451
:104B300002D07A6603B0F0BD3A660120FAE71A4661
:104B40003146FFF7AFFFF8E702468068084004D01F
:104B500093690B4214BF0120002070474FF44412A8
:104B6000024BDA619A6E5206FCD5704700060E4081
:104B70002C2818D81F284FF001030C4A08D8916937
:104B800003FA00F030EA010300D010610020704702
:104B9000D2F80811203803FA00F030EA0103F5D00A
:104BA000C2F80001F2E70120704700BF00060E4086
:104BB0002C2818D81F284FF001030C4A08D89169F7
:104BC00003FA00F030EA010300D150610020704781
:104BD000D2F80811203803FA00F030EA0103F5D1C9
:104BE000C2F80401F2E70120704700BF00060E4042
:104BF0000002034B00F4706040F0010098637047BE
:104C000000060E402022014B1A60704700060E403D
:104C100001230360704738B5044608461546FFF780
:104C2000A7FF02232360802323602360656038BDD3
:104C30000C3140F821207047024A13680133136099
:104C4000704700BF240F0720014B1868704700BF52
:104C5000240F072010B550B14900B2FBF1F200213A
:104C6000043A22FA01F4FF2C07D90131F9E7742143
:104C7000094B0A4A0A4800F0C7FF072903D98921CE
:104C8000084B064AF6E700230361230243EA014387
:104C90002343036110BD00BF8C8E0800538F0800B2
:104CA000918E0800BF8E080008B528B9AE21054BCB
:104CB000054A064800F0A8FF80230360036B282301
:104CC000036008BD8C8E0800478F0800918E080095
:104CD00070B50D461646044628B96321084B094AAB
:104CE000094800F091FF10230360FFF7DDFF042364
:104CF0002360324629462046BDE87040FFF7AABF30
:104D00008C8E0800608F0800918E080008B528B9C5
:104D1000C321044B044A054800F076FF02230360D8
:104D200008BD00BFCB8E0800D58F0800918E08000B
:104D300010B528B9D721124B124A134800F064FF6E
:104D40000C0603D5D821114B0E4AF6E712F07F442A
:104D500003D0D9210E4B0B4AEFE7032B03D9DA21FD
:104D60000C4B084AE9E7090441EA0321012341F415
:104D7000805144604160C460C260036010BD00BFE8
:104D8000CB8E0800C78F0800918E0800D88E0800CF
:104D9000EE8E08000B8F080008B528B9F021044BEF
:104DA000044A054800F030FF006BC0B208BD00BFE8
:104DB000CB8E0800BA8F0800918E080008B528B97C
:104DC000FF21034B034A044800F01EFF416308BD66
:104DD000CB8E0800AC8F0800918E080070B50C4691
:104DE0009DF8101030B94FF48B71134B134A1448CF
:104DF00000F00AFF260604D540F21711114B0F4AA6
:104E0000F5E712F07F4604D04FF48C710E4B0B4A3D
:104E1000EDE7032B04D940F219110C4B074AE6E7E2
:104E2000240444EA032446604460C660C260BDE8CE
:104E30007040FFF7C3BF00BFCB8E08009D8F0800F6
:104E4000918E0800D88E0800EE8E08000B8F0800A7
:104E500008B530B940F24F11084B094A094800F033
:104E6000D3FE21F4776323F0070323B14FF4A87135
:104E7000054B034AF2E7416208BD00BFCB8E080034
:104E8000908F0800918E0800158F080008B530B982
:104E90004FF4AE71084B094A094800F0B5FE21F401
:104EA000776323F0070323B140F25D11054B034AFA
:104EB000F2E7816208BD00BFCB8E0800828F080038
:104EC000918E0800158F080008B530B940F26B11BB
:104ED000034B044A044800F097FE006A08BD00BF77
:104EE000CB8E0800748F0800918E080008B530B989
:104EF0004FF4C571044B054A054800F085FE036870
:104F000043F00203036008BDCB8E0800318F080018
:104F1000918E0800024B1B6803B11847704700BF11
:104F2000280F0720014B1860704700BF280F07208B
:104F3000002310B51C462A492A4A41F8234042F86A
:104F4000234001330A2BF8D12820FFF711FEFFF789
:104F500005FE0020FFF74CFEFFF754FE4FF4807271
:104F6000214B002083F828435A60204BD3F80028B7
:104F700022F08072C3F80028D3F8002842F00072B3
:104F8000C3F80028D3F8002822F08072C3F8002864
:104F9000D3F8002822F48052C3F80028D3F8002860
:104FA00042F48052C3F80028D3F8002842F40042AB
:104FB000C3F80028D3F8002822F48042C3F8002860
:104FC0001A6822F480521A601A6822F440621A6049
:104FD000D3F8002842F48042C3F8002810BD00BF77
:104FE000540F07202C0F072000E100E000C00A400A
:104FF0000F4A106872B6BFF35F8F002313600D4B2A
:10500000D3F8001821F48041C3F80018D3F804182D
:105010004904FBD5196821F4807119600821996150
:1050200020B101231360BFF35F8F62B6704700BFEA
:10503000A800072000C00A40094A00F00F0000F154
:10504000400342F823100123D16983400B43D3610D
:10505000044B53F820305B0300D4FEE7704700BFD9
:1050600000C00A4030C10A400123F0B51D460B4A7A
:105070000B4E8B4200D3F0BD50F8237003F1400477
:1050800042F82470D76905FA03F43C43D46156F81A
:105090002340640300D4FEE70133EAE700C00A407E
:1050A00030C10A40024AD2F83031DB07FBD57047E5
:1050B00000C00A40024AD2F830319B07FBD5704746
:1050C00000C00A400122034BC3F860210022024BBA
:1050D0001A60704700C00A40540F07200222034B99
:1050E000C3F860210022024B1A60704700C00A40DA
:1050F0002C0F0720024BD3F8300100F0040070475A
:1051000000C00A400422024BC3F86021704700BF70
:1051100000C00A40F8B5034610469C0004F18044E4
:10512000DE0304F52C24D4F83021D207FBD5174D2B
:10513000D3B92A680244402A02D92868C0F1400045
:1051400055F823201644124A32440E18B1420FD1AA
:1051500055F82320024445F8232073B92B68402BCF
:1051600001D1FFF7AFFFF8BD002245F82320E7E7A4
:1051700011F8017B02F8017FE8E70123C4F86031F0
:105180004FF48043C4F82032EDE700BF540F0720EE
:10519000FFFF1720074A52F8203003EBC03303F11A
:1051A000005303F5C013197052F82030013342F850
:1051B00020307047540F07200246084951F820302C
:1051C00003EBC03303F1005303F5C013187851F813
:1051D0002230013341F82230704700BF2C0F0720E6
:1051E00070B50C4C013954F8203003EBC03303F197
:1051F000005303F5C0139D18AB4205D154F820307D
:105200001A4444F8202070BD13F8016B01F8016FB7
:10521000F2E700BF2C0F07200122034BDA614FF4A5
:105220000022C3F8F021704700C00A40034B4C3005
:1052300053F82000C0F30A50704700BF00C00A4076
:105240000222830003F1804303F52C23C3F860217D
:105250004FF48042C3F820220022024B43F8202062
:10526000704700BF2C0F07200122830003F1804309
:1052700003F52C23C3F860214FF48042C3F82022A9
:105280000022024B43F82020704700BF540F072034
:10529000064A00F07F00136823F07F030343136086
:1052A000136843F080031360704700BF00C00A40DA
:1052B000416070474FF4004343607047014B036007
:1052C000704700BF010000A54FF48063164A1360C9
:1052D000C2F80032154B1A6AD20104D4144A1A6279
:1052E0009A6ED007FCD5134A1A629A6ED103FCD588
:1052F0001A6B22F0030242F001021A639A6E12073F
:10530000FCD50D4A9A629A6E9007FCD511221A6359
:105310009A6E1107FCD512221A639A6E1207FCD5F9
:10532000064B074A1A607047000A0E4000060E40FE
:105330000908370009083701013F0D20AC0007209C
:1053400000BD010508B5144A144B9A4202D0144915
:105350008B4219D30021134B134A934219D3134B99
:10536000134A23F0604121F07F0103F16043B3F55C
:10537000801F91603EBF936843F00053936000F03C
:1053800081FCFEF72FF8FEE752F8040B43F8040BFC
:10539000DEE743F8041BE0E71C910800000007204B
:1053A0001401072014010720F8100720000008004E
:1053B00000ED00E090F8312090F83000101A7047AE
:1053C00090F8303090F831209A4281BF5A1C80F812
:1053D0003020C018007C98BF4FF0FF30704790F825
:1053E000303090F831209A4286BFC018007C4FF0D0
:1053F000FF307047704700004FF48002034B1620C7
:10540000C3F88020C3F88021FFF7D2BB00E100E0A1
:105410004FF40002034B1720C3F88020C3F880210B
:10542000FFF7C6BB00E100E010B5124C1620FFF7F5
:105430009FFBD4F8B837D4F8AC2794F8B417D4F855
:10544000A807FFF755FBD4F8D437D4F8C82794F849
:10545000D017D4F8C407FFF74BFB4FF480020021AC
:10546000054BC3F88020C3F8802183F816131A6017
:1054700010BD00BF2084080000E100E010B5124C10
:105480001720FFF775FBD4F84032D4F8342294F893
:105490003C12D4F83002FFF72BFBD4F85C32D4F87E
:1054A000502294F85812D4F84C02FFF721FB4FF425
:1054B00000020021054BC3F88020C3F8802183F847
:1054C00017131A6010BD00BF2084080000E100E03F
:1054D00090F88C30022B0BD190F853301F2B12D840
:1054E0005A1C80F85320184480F83310012070476C
:1054F00090F875301F2B06D85A1C80F87520184478
:1055000080F85410F2E70020704730B5034690F859
:105510008C0002284FF000000ED182421BD093F87D
:1055200053401F2C18D8651C83F853500D5C1C4445
:1055300084F833500130F0E790420CD093F8754076
:105540001F2C09D8651C83F875500D5C1C4484F829
:1055500054500130F0E7104630BD000038B5054624
:10556000064C2846FFF7B0FCC30501D4013C01D12D
:10557000002002E04207F4D5012038BDA0860100DA
:1055800038B50546064C2846FFF79EFCC30501D4F6
:10559000013C01D1002002E0C207F4D5012038BD52
:1055A000A086010070B500254FF47A76C0E920236B
:1055B000C0E90156084B094E0586066080F8325056
:1055C00080F85350A0F87450C0F8881080F88C50C0
:1055D000C0F8903070BD00BFA0860100E88F0800C1
:1055E00010B5D0F88030044603B1984740F202224B
:1055F000D4F88830C3F82021D4F89010044AD4F8A5
:105600008800FFF765FB012384F88C3010BD00BFD4
:1056100000BD0105C0F89010024AD0F88800FFF7DD
:1056200019BB00BF00BD0105202A2DE9F04728BFA6
:1056300020220446184617469DF820300246D4F82A
:105640008800FFF775FB002504F110092E4601358F
:10565000BD4203D1D4F88800FFF748FCD4F888A0F5
:10566000DFF840805046FFF72FFCC30502D4B8F1A5
:1056700001080BD1D4F88800FFF782FF0023F0B2B5
:1056800084F8303084F83100BDE8F0878207E9D52E
:10569000D4F88800FFF780FBBD4209F8010BD5DB89
:1056A0002E46E7E7A086010007B50193002300938B
:1056B000FFF7BAFF03B05DF804FB022380F88C30DB
:1056C000002380F8321080F853307047022380F8AE
:1056D0008C30002380F8321080F853307047F7B5D3
:1056E00090F8333004460093002390F832101A46A5
:1056F000D0F88800FFF772FBD4F88800FFF72EFF80
:1057000060B30126002504F1340794F85320B3B2A6
:105710009A420ED917F8011BD4F88800FFF74EFB08
:10572000D4F88800FFF71AFF002808BF03250136C8
:10573000EBE755B9D4F88800FFF7E8FAD4F8880009
:10574000FFF71EFF002808BF04250023284684F821
:105750005330012384F88C3003B0F0BD0225F4E708
:105760000121FFF7BCBF70B50446D0F88800FFF7F1
:10577000ABFB94F88C300546042B14D1C30612D52C
:105780001021D4F88800FFF781FB40F62351D4F8AC
:105790008800FFF75DFB00232E07A4F874301AD4AD
:1057A000052384F88C3094F88C30042B33D02805F2
:1057B00032D5052B21D1E16FF9B1002394F87500A2
:1057C00004F11002DDB2A84211D992F8445001331D
:1057D00002F8015BF6E70623A16F84F88C3009B16B
:1057E0008847E0E7236820461B689847DBE70023EB
:1057F00084F8310084F8303088471021D4F88800CC
:10580000FFF726FB40F62351D4F88800FFF73EFB54
:10581000042384F88C3070BD052B0FD1A907FAD56D
:1058200094F875601F2EF6D8731CD4F8880084F89D
:105830007530FFF7B1FA264486F8540094F88C309E
:10584000062BE8D16A07E6D5EB05E4D494F874306A
:1058500094F87520D4F888009A4283BF5A1C84F8C3
:1058600074201B197821BDE8704088BF93F854104C
:10587000FFF7A4BA0148FFF776BF00BF7C0F0720EF
:105880000148FFF770BF00BF1010072010B507498F
:10589000074B084A0848FFF785FEBDE81040074B54
:1058A000074A0848A1F58041FFF77CBE0000094087
:1058B000115408007D5408007C0F0720F95308009C
:1058C000295408001010072010B5104CD4F84438A3
:1058D000D4F8382894F84018D4F83408FFF708F9B9
:1058E000D4F82838D4F81C2894F82418D4F81808C8
:1058F000FFF7FEF8D4F86038D4F8542894F85C1810
:10590000D4F85008BDE81040FFF7F2B82084080032
:1059100010B590F830300446A3B9C0E90D33C0E9A2
:105920000F3380F8313080F83230C36A9847D4E9B9
:1059300000011322FFF76FF92068FFF769F90123CF
:1059400084F8303010BD000017B402AC04E90C003C
:1059500090F83130ABB10F2B25D8DA0742BF1B4A84
:10596000446B54649C0742BF846B194A54645A07C1
:1059700042BFC46B174A54641B0702D5026C164B16
:105980005A640A291DD004291DD034290CBF0221D4
:1059900003219DF8042043181A720068009A03B08E
:1059A00010BCFFF745B9EFF3108343B9EFF313834E
:1059B000B3FA83F35B0980F8323072B6E1E7002373
:1059C000F9E70021E5E70121E3E700BF000E0E4003
:1059D00000100E4000120E4000140E4090F83130BE
:1059E000D3B10F2B14D8DA0742BF0C4A416B1164B4
:1059F000990742BF816B0A4A11645A0742BFC16BC3
:105A0000084A11641B0707D5026C074B1A647047DC
:105A100090F8323003B162B6704700BF000E0E40FE
:105A200000100E4000120E4000140E400A2913D040
:105A3000042913D034290CBF0221032142F00803AA
:105A400000EB8102D361D2680068120292B21A435D
:105A500042F08072FFF7ECB80021EFE70121EDE79B
:105A60000A2910D0042910D034290CBF02210321A7
:105A700000EB8103DA60DB69006843EA022242F04E
:105A80008072FFF7D5B80021F2E70121F0E710B5E9
:105A90000446FFF73DFF15224E212046FFF7E0FFA9
:105AA00002224E212046FFF7C1FF0123E37210BD01
:105AB0000A2930B529D0042929D034290CBF022461
:105AC00003240519297A19B992FAA2F212BAD2B2AC
:105AD0000121A140C943090401F47021012B42EACC
